:100000000C94B1000C94F8010C9431020C94CE00C5
:100010000C94CE000C94CE000C94CE000C94CE0028
:100020000C94CE000C94CE000C94CE000C94CE0018
:100030000C94CE000C94CE000C94CE000C94CE0008
:100040000C94AE010C94CE000C94CE000C94CE0017
:100050000C94CE000C94CE000C94CE000C94CE00E8
:100060000C94CE000C94CE0000407A10F35A00A0FD
:10007000724E18090010A5D4E80000E87648170071
:1000800000E40B54020000CA9A3B000000E1F505B1
:10009000000080969800000040420F000000A086FB
:1000A00001000000102700000000E803000000002D
:1000B0006400000000000A000000000001000000D1
:1000C00000002C76D888DC674F0823DFC1DFAE59EB
:1000D000E1B1B796E5E3E453C63AE651997696E87E
:1000E000E6C28426EB898C9B62ED407C6FFCEFBC02
:1000F0009C9F40F2BAA56FA5F490055A2AF75C932D
:100100006B6CF9676DC11BFCE0E40D47FEF520E662
:10011000B500D0ED902E0300943577050080841E45
:10012000080000204E0A000000C80C333333330FA0
:10013000986E12831141EF8D2114893BE65516CF3D
:10014000FEE6DB18D1844B381BF77C1D901DA4BB49
:10015000E424203284725E228100C9F124ECA1E5FE
:100160003D2711241FBECFEFD8E0DEBFCDBF11E089
:10017000A0E0B1E0E6EBFFE102C005900D92A239EC
:10018000B107D9F721E0A2E9B1E001C01D92A03E7C
:10019000B207E1F70E946A020C94D90F0C94000098
:1001A0003FB7F8948091DC019091DD01A091DE01D0
:1001B000B091DF0126B5A89B05C02F3F19F001962D
:1001C000A11DB11D3FBFBA2FA92F982F8827BC01B1
:1001D000CD01620F711D811D911D42E0660F771FD9
:1001E000881F991F4A95D1F70895FC019191992391
:1001F00039F08091C00085FFFCCF9093C600F6CF08
:100200000895CF92DF92EF92FF926B017C0120E084
:1002100030E044E353E40E940C0F18169CF120E0F8
:1002200030E044E353ECC701B6010E94B40D87FFF0
:1002300006C0C12CD12C94E3E92E93ECF92E25E5D0
:1002400035E545ED50E4C701B6010E94110F20E0ED
:1002500030E84BEB54E40E94480D9B01AC010E9436
:10026000480D20E030E040E05FE30E94480D0E942E
:100270002B0E7093890060938800FF90EF90DF90C1
:10028000CF900895C12CD12C84E3E82E83E4F82E7E
:10029000D6CF8093BB0084E88093BC008091BC00E3
:1002A00087FFFCCF089584EA8093BC008091BC0056
:1002B00087FFFCCF0895CF93DF93EC010E94530199
:1002C00080ED0E9449018BE30E9449010E94530185
:1002D00081ED0E94490190E080E024E834EC8D300B
:1002E000D1F03093BC004091BC0047FFFCCF40915F
:1002F000BB00FE01E80FF91F408301968E30910587
:1003000071F784E98093BC0085E38A95F1F70000DA
:10031000DF91CF9108952093BC004091BC0047FF2E
:10032000FCCF4091BB004D87E8CFCF93DF93D82F10
:10033000C62F0E94530180ED0E9449018D2F0E941B
:1003400049018C2F0E94490184E98093BC0085E318
:100350008A95F1F70000DF91CF9108951F920F92D7
:100360000FB60F9211242F933F938F939F93AF93C8
:10037000BF938091D8019091D901A091DA01B091F9
:10038000DB013091D70123E0230F2D3758F501967B
:10039000A11DB11D2093D7018093D8019093D9015D
:1003A000A093DA01B093DB018091DC019091DD0133
:1003B000A091DE01B091DF010196A11DB11D8093D6
:1003C000DC019093DD01A093DE01B093DF01BF91CA
:1003D000AF919F918F913F912F910F900FBE0F90F2
:1003E0001F90189526E8230F0296A11DB11DD2CFAC
:1003F0001F920F920FB60F9211242F933F934F939A
:100400005F936F937F938F939F93AF93BF93EF937C
:10041000FF934A9B1BC00E94D0006093D30170934E
:10042000D4018093D5019093D601FF91EF91BF91B4
:10043000AF919F918F917F916F915F914F913F917C
:100440002F910F900FBE0F901F9018950E94D00013
:100450006093CF017093D0018093D1019093D2012A
:10046000E4CF1F920F920FB60F9211242F933F9358
:100470004F935F936F937F938F939F93AF93BF93AC
:10048000EF93FF934B9B1BC00E94D0006093CB0166
:100490007093CC018093CD019093CE01FF91EF91A9
:1004A000BF91AF919F918F917F916F915F914F918C
:1004B0003F912F910F900FBE0F901F9018950E94A3
:1004C000D0006093C7017093C8018093C9019093D5
:1004D000CA01E4CFCF93DF93CDB7DEB7A0970FB6B5
:1004E000F894DEBF0FBECDBF789484B5826084BD22
:1004F00084B5816084BD85B5826085BD85B5816028
:1005000085BD80916E00816080936E0010928100A5
:100510008091810082608093810080918100816060
:100520008093810080918000816080938000809121
:10053000B10084608093B1008091B00081608093AD
:10054000B00080917A00846080937A0080917A0074
:10055000826080937A0080917A00816080937A0033
:1005600080917A00806880937A001092C100109286
:10057000C50087E68093C40088E18093C10086E0CF
:100580008093C20085E091E00E94F50084B188620A
:1005900084B985B1877D85B98AB1837F8AB98BB1EA
:1005A000837F8BB985E08093690083E08DBB1092D7
:1005B000C7011092C8011092C9011092CA0110928D
:1005C000CB011092CC011092CD011092CE0110926D
:1005D000CF011092D0011092D1011092D20110924D
:1005E000D3011092D4011092D5011092D60187E167
:1005F00091E00E94F50080E480937C0087E880937E
:100600007A0080917C00807F826080937C0081E210
:1006100091E00E94F500219A82E8809380008AE1AF
:100620008093810080E49CE990938700809386000A
:1006300088EB9BE090938900809388008BE291E0A7
:100640000E94F5008AB180668AB95D9884B583609E
:1006500084BD84B5806A84BD85B5826085BD17BCC4
:1006600018BC88E391E00E94F5001092B90008E4FC
:100670000093B80014E01093BC0083E491E00E9462
:10068000F5001092B9000093B8001093BC0060E030
:100690008BE60E9495012FEF31EE44E0215030406F
:1006A0004040E1F700C0000067E089E10E94950149
:1006B00063E08AE10E94950168E08BE10E94950168
:1006C00068E08CE10E9495011092A8011092A901A6
:1006D0001092AA011092AB0110929601109297010C
:1006E0001092980110929901109292011092930128
:1006F00010929401109295011092A2011092A30100
:100700001092A4011092A50181E0809300018EE473
:1007100091E00E94F5005FEF81EE94E0515080403F
:100720009040E1F700C0000008EC10E0C12CD12C93
:100730007601CE0101960E945B016D857E8576274C
:1007400067277627072E000C880B990B0E945C0EFA
:1007500020E030E043E852E40E94B90D9B01AC0177
:10076000C701B6010E94480D6B017C01AFE1BEE4F8
:100770001197F1F700C0000001501109D1F620E0F7
:1007800030E048E453E40E94B90D60939601709301
:100790009701809398019093990160E070E0CB01FC
:1007A0000E9401018FEF88BD17BC789489E591E024
:1007B0000E94F50081E691E00E94F500312C212C89
:1007C00045C40091A2011091A3012091A401309190
:1007D000A5016B017C01C01AD10AE20AF30ACD8A95
:1007E000DE8AEF8AF88E20E1C21627E2D206E10403
:1007F000F10408F43CC46093A2017093A3018093B8
:10080000A4019093A501CE0101960E945B010D8584
:100810001E8510270127102769817A81762767278F
:100820007627072E000C880B990B0E945C0E20E0A7
:1008300030E040E059E30E94110F23EC35EF4CE12A
:1008400051E40E94110F2B013C016B817C817627C2
:1008500067277627072E000C880B990B0E945C0EE9
:1008600020E030E040E059E30E94110F23EC35EF27
:100870004CE151E40E94110F4B015C016D817E81BE
:10088000762767277627072E000C880B990B0E9486
:100890005C0E20E030E040E059E30E94110F23ECB1
:1008A00035EF4CE151E40E94110F6B017C01A30173
:1008B0009201C301B2010E94110F2B013C01A5015D
:1008C0009401C501B4010E94110F9B01AC01C30149
:1008D000B2010E94480D4B015C01A7019601C701BE
:1008E000B6010E94110F9B01AC01C501B4010E9429
:1008F000480D0E94840F2B013C0140929E015092B2
:100900009F016092A0017092A101B801110F880BA4
:10091000990B0E945C0E20E030E043E852E40E9414
:10092000B90D60939A0170939B0180939C01909301
:100930009D0160919A0170919B0180919C01909121
:100940009D0120919601309197014091980150911D
:1009500099010E94470D6B017C018090920190905B
:100960009301A0909401B0909501A50194010E947B
:10097000470D2DEC3CEC4CEC5EE30E94110FA50101
:1009800094010E94480D4B015C018092920190926B
:100990009301A0929401B09295018091A801909149
:1009A000A901A091AA01B091AB01898F9A8FAB8F59
:1009B000BC8F6D897E898F89988D0E945A0E20E0A8
:1009C00034E244E759E40E94B90DA50194010E9464
:1009D000110F298D3A8D4B8D5C8D0E94480D6093CF
:1009E000A8017093A9018093AA019093AB01609133
:1009F000A8017091A9018091AA019091AB0120E01A
:100A000030E044E353E40E940C0F1816B4F46091F4
:100A1000A8017091A9018091AA019091AB0120E0F9
:100A200030E044EB53E40E94470D6093A8017093BB
:100A3000A9018093AA019093AB016091A8017091E4
:100A4000A9018091AA019091AB0120E030E044E33C
:100A500053EC0E94B40D87FF16C06091A8017091FD
:100A6000A9018091AA019091AB0120E030E044EB14
:100A700053E40E94480D6093A8017093A9018093EC
:100A8000AA019093AB0123EC35EF4CE151E4C30193
:100A9000B2010E94B90D20E030E040E85FE30E941F
:100AA000470D9F772AE939E949E15EE30E94B40DD9
:100AB00087FFDDC220E030E040E85FE3C701B60118
:100AC0009F770E94B40D87FFD2C2809096019090CC
:100AD0009701A0909801B09099012FE632E143E888
:100AE0005AE3C701B6010E94110FA50194010E94AB
:100AF000480D6093960170939701809398019093AD
:100B00009901B5C220E030E044E353ECC501B401E3
:100B10000E94B40D18165CF020E030E044EB53E482
:100B2000C501B4010E94480D4B015C01EBCF8091DF
:100B30007C00807F826080937C0080917A0080645A
:100B400080937A0080917A0086FDFCCF80917800B6
:100B5000909179009093A7018093A6012D9A95E337
:100B60009A95F1F700002D98AFE7B8E3E1E0A150C6
:100B7000B040E040E1F700C000004091C701509153
:100B8000C8016091C9017091CA018091CB01909117
:100B9000CC01A091CD01B091CE0184179507A60795
:100BA000B70708F0EAC06091C7017091C801809151
:100BB000C9019091CA010091CB011091CC01209103
:100BC000CD013091CE01601B710B820B930B2AE398
:100BD00030E040E050E00E94250D30930401209366
:100BE00003011092C7011092C8011092C90110921E
:100BF000CA011092CB011092CC011092CD0110923B
:100C0000CE012B9A25E32A95F1F700002B983FE7B8
:100C100048E351E0315040405040E1F700C000004F
:100C20004091CF015091D0016091D1017091D201DA
:100C30008091D3019091D401A091D501B091D601BA
:100C400084179507A607B70708F0A0C06091CF01E9
:100C50007091D0018091D1019091D2010091D30186
:100C60001091D4012091D5013091D601601B710BF8
:100C7000820B930B2AE330E040E050E00E94250D08
:100C800030930201209301011092CF011092D00104
:100C90001092D1011092D2011092D3011092D4017E
:100CA0001092D5011092D601C0900301D09004019A
:100CB000DA8EC98EB60190E080E00E945A0E6B0178
:100CC0007C0120910101309102013E8B2D8BB901F5
:100CD00090E080E00E945A0E2B013C013FEF38BDAE
:100CE0008BE791E00E94F5008E010F5F1F4F23E01C
:100CF00040E0C701B6010E94990AC8010E94F500B0
:100D000083E891E00E94F50023E040E0C301B201D6
:100D10000E94990AC8010E94F50088E791E00E94AC
:100D2000F50042E02416310409F469C3B0F581E00E
:100D30002816310409F433C2BFEFB8BDECEDE7BDAE
:100D4000A50194016091C3017091C4018091C50116
:100D50009091C6010E94470D4B015C0120E030E0FC
:100D600044E353E40E940C0F181644F520E030E0F1
:100D700044EB53E4C501B401EDCF7FE0C72E77E229
:100D8000D72ED0920401C09203012BCF8FE097E2BF
:100D9000909302018093010177CF93E029163104EB
:100DA00009F4AFC2A4E02A16310431F660E070E025
:100DB000CB010E94010117BC18BC48C120E030E003
:100DC00044E353ECC501B4010E94B40D18165CF065
:100DD00020E030E044EB53E4C501B4010E94480D2B
:100DE0004B015C01EBCF20E030E040E450ECC5016A
:100DF000B4010E94110F4B015C018FB7F894209150
:100E0000D8013091D9014091DA015091DB012D8F49
:100E10003E8F4F8F58A38FBF8091BF019091C0012B
:100E2000A091C101B091C201281B390B4A0B5B0B89
:100E3000DA01C9014497A105B10580F0C501B401EB
:100E40000E9401018D8D9E8DAF8DB8A18093BF0151
:100E50009093C001A093C101B093C20120E030E0A3
:100E600044E352ECC501B4010E94B40D87FDA4C057
:100E700020E030E044E352E4C501B4010E940C0FCD
:100E8000181634F4812C912C64E3A62E62E4B62E5D
:100E9000C501B4010E9401018091A6019091A701B2
:100EA000E4E02E2E312C8139914008F0CFC08FB76D
:100EB000F8948090D8019090D901A090DA01B09078
:100EC000DB018FBF8091BE0181113CC02091BA012E
:100ED0003091BB014091BC015091BD01C701B601E9
:100EE0000E94470D9F7720E030E040EA50E40E94E6
:100EF000B40D87FF78C020E03CE34CE156E4C70125
:100F0000B6010E94B40D81116EC08091B60190911E
:100F1000B701A091B801B091B9010097A105B10541
:100F200009F051C08092B6019092B701A092B80129
:100F3000B092B901C092BA01D092BB01E092BC015B
:100F4000F092BD018091BE01882309F4F6C017BC60
:100F50008D899E890A978B3E914008F0A6C0A30117
:100F60009201C701B6010E94B40D87FF9EC0C090D8
:100F7000C301D090C401E090C501F090C60160E0CB
:100F800070E084EB92E40E94010120E030E044E351
:100F900053E4C701B6010E94470D6B017C0120E0BC
:100FA00030E044E353E40E940C0F18162CF520E0C7
:100FB00030E044EB53E4EDCF812C912C54E3A52E8B
:100FC00052ECB52E65CF881A990AAA0ABB0AB1ED70
:100FD0008B16B7E09B06A104B10408F4ABCFE1E0A7
:100FE000E093BE01A7CF1092B6011092B701109204
:100FF000B8011092B9019ECF20E030E044E353ECF9
:10100000C701B6010E94B40D18165CF020E030E074
:1010100044EB53E4C701B6010E94480D6B017C010B
:10102000EBCFC092B201D092B301E092B401F09242
:10103000B50143E0242E312C1092BE011092B6016E
:101040001092B7011092B8011092B9010E94D0001D
:1010500020910001222309F4B4CB6093A201709384
:10106000A3018093A4019093A501109200018090A8
:10107000A8019090A901A090AA01B090AB0120E036
:1010800030E044E353E4C501B4010E940C0F18168C
:101090000CF038CD20E030E044EB53E4C501B4015E
:1010A0000E94470D4B015C01EACF60E070E084EBE9
:1010B00092EC0E94010120E030E044E353E46091AF
:1010C000C3017091C4018091C5019091C6010E9435
:1010D000480D6B017C0120E030E044E353E40E94C2
:1010E0000C0F18164CF420E030E044EB53E4C70139
:1010F000B6010E94470DEDCF20E030E044E353EC11
:10110000C701B6010E94B40D18165CF020E030E073
:1011100044EB53E4C701B6010E94480D6B017C010A
:10112000EBCFC092B201D092B301E092B401F09241
:10113000B50132E0232E312C7FCF898D9A8D0A970D
:101140008B3E914050F420E030E04CE852E4C7017F
:10115000B6010E94B40D87FD05C01092B101109236
:10116000B0012CCB48E747BD8091B0019091B1010F
:1011700001968A30910528F49093B1018093B001D3
:101180001DCB1092B1011092B00160E070E0CB0174
:101190000E94010117BC22242394312C57CF60E018
:1011A00070E0CB010E94010117BC18BC8091AE0118
:1011B0009091AF0101968431910528F49093AF018D
:1011C0008093AE0143CF1092AF011092AE01C09058
:1011D000C301D090C401E090C501F090C6018D8993
:1011E0009E890A978B3E9140A0F420E030E04CE0CD
:1011F00052E4C301B2010E940C0F87FD0AC020E037
:101200003CE34CE156E4C301B2010E94B40D8111EC
:1012100040C020E030E044E353E4C701B6010E943F
:10122000480D6B017C0120E030E044E353E40E9470
:101230000C0F18164CF420E030E044EB53E4C701E7
:10124000B6010E94470DEDCF20E030E044E353ECBF
:10125000C701B6010E94B40D18165CF020E030E022
:1012600044EB53E4C701B6010E94480D6B017C01B9
:10127000EBCFC092B201D092B301E092B401F092F0
:10128000B50192E0292E312C1092AD011092AC01E3
:10129000DDCE20E030E044E353E4C701B6010E9414
:1012A000470D6B017C0120E030E044E353E40E94F1
:1012B0000C0F18162CF420E030E044EB53E4EDCF93
:1012C00020E030E044E353ECC701B6010E94B40DC6
:1012D00018165CF020E030E044EB53E4C701B6019F
:1012E0000E94480D6B017C01EBCFC092B201D092FD
:1012F000B301E092B401F092B50183E0282E312CC5
:10130000C3CF8FEF88BD98EC97BDA5019401609184
:10131000B2017091B3018091B4019091B5010E9426
:10132000470D4B015C0120E030E044E353E40E94B0
:101330000C0F18163CF420E030E044EB53E4C501F8
:10134000B401EDCF20E030E044E353ECC501B4013B
:101350000E94B40D18165CF020E030E044EB53E43A
:10136000C501B4010E94480D4B015C01EBCFC501E2
:10137000B4019F7720E030E040E450E40E94B40DD7
:1013800018160CF0AEC08091AC019091AD010196A1
:101390009093AD018093AC01893C910508F0A1C008
:1013A0008FB7F894C090D801D090D901E090DA01BD
:1013B000F090DB018FBF8091BF019091C001A0919F
:1013C000C101B091C201A7019601281B390B4A0B3C
:1013D0005B0BDA01C9014497A105B10508F436CECB
:1013E00060E070E084EB92E40E940101C092BF01D2
:1013F000D092C001E092C101F092C20127CE3FEF2E
:1014000038BD48EC47BDA50194016091B2017091CF
:10141000B3018091B4019091B5010E94470D4B0139
:101420005C0120E030E044E353E40E940C0F181606
:101430003CF420E030E044EB53E4C501B401EDCFCF
:1014400020E030E044E353ECC501B4010E94B40D48
:1014500018165CF020E030E044EB53E4C501B40121
:101460000E94480D4B015C01EBCFC501B4019F7791
:1014700020E030E040E450E40E94B40D18168CF5F2
:101480008091AC019091AD0101969093AD01809354
:10149000AC01893C910528F58FB7F894C090D8012C
:1014A000D090D901E090DA01F090DB018FBF8091FC
:1014B000BF019091C001A091C101B091C201A701EB
:1014C0009601281B390B4A0B5B0BDA01C9014497C3
:1014D000A105B10508F4BACD60E070E084EB92ECB0
:1014E00083CF60E070E0CB010E9401018091A801F0
:1014F0009091A901A091AA01B091AB018093C30181
:101500009093C401A093C501B093C6011092BE018F
:101510001092B6011092B7011092B8011092B90161
:10152000C092BA01D092BB01E092BC01F092BD0121
:1015300045C9EF920F931F93CF93DF93E80134E0F7
:1015400047FD34E1042E000C550B57FF03C05195A5
:1015500041955109E32E022F242FAE010E94B70AB4
:10156000CE01DF91CF911F910F91EF900895A9E0E7
:10157000B0E0EDEBFAE00C94F40C6A01F22EB02E20
:10158000102FFBE3AF2EA01608F41BE31F5F012F03
:1015900027E0AE014F5F5F4F0E94160CBC018981AE
:1015A000982F9970913009F43FC09BE2E1FC04C090
:1015B0009E2D9170E0FC3AC05E2D5071E82FE870CE
:1015C00083FF46C084E0911101C083E0EF2DE81B4A
:1015D0008F1508F0E0E0D6018E2F20E2552351F15F
:1015E000992329F0D6019C93C60101966C019601BE
:1015F0002D5F3F4FE2FE24C08EE4D6018C9391E430
:1016000011969C93119712968C93D9018E2F90E28C
:1016100081111BC0E20FF32FF11D10828EEF9FEF9F
:101620002996ECE00C94100D9DE2C6CF90E2C4CF59
:101630002D9381508111FCCFCE0ED11CE0E0D0CF94
:101640008EE6D6018C9391E6DBCF9D938150E0CF5F
:10165000482F447082FF3DC084E0911101C083E0B7
:101660008F1510F4EF2DE81BD6018E2F20E25523A5
:1016700009F1992329F0D6019C93C60101966C01CA
:1016800096012D5F3F4FE2FE1BC089E4D6018C938B
:101690008EE411968C93119786E412968C93D9015F
:1016A0008E2F90E2882309F4B5CF9D938150FACF15
:1016B0002D9381508111FCCFCE0ED11CE0E0D9CF0B
:1016C00089E6D6018C938EE611968C93119786E667
:1016D000E4CF9B0177FF02C030E020E0A1E0B0E062
:1016E000911102C0B0E0A0E0F9013196AE0FBF1F2A
:1016F0008B2C912CBB2009F461C05401EFEFAE1A82
:10170000BE0AAA0DBB1DFA161B0619F014F04F2DC8
:101710004A1B511188C0E3FC59C07601A42FB0E2E6
:10172000A1114FC0C40ED11C992309F45BC040E045
:10173000D6011196F60190836D01552309F448C036
:10174000012F060F9A81582F507184FF03C09133E7
:1017500009F4015010160CF047C0093008F008E0F9
:10176000EEE2FE2E5B01A01AB108850191948194EE
:1017700091082F3F320729F4D601FC92F6013196E9
:101780006F016217730794F1021713077CF5DB01F1
:10179000A21BB30BAA24A394B12CAC0EBD1EAA0DA0
:1017A000BB1D11968C9121503109D6011196281537
:1017B0003905F4F0F60180836D01DBCFB12CA12C4B
:1017C000A0CFF701B1937F01A150AACF9111B0CF63
:1017D000D601942F50E302C05D9391509111FCCF3C
:1017E000C40ED11C40E0ACCF01E0BACF80E3DBCF28
:1017F0006217730731F4963388F4953311F4552347
:1018000069F0F6018083FD01842F90E2811108C008
:10181000A40FB11D1C9290E080E002CF81E3F1CFD4
:1018200091938150F3CF911183CF8ACF283008F064
:1018300027E03327DA01990F311D87FD916000966B
:101840006105710539F432602E5F3D9330E32A95CE
:10185000E1F708959F3F30F080387105610509F088
:101860003C5F3C5F3D93913008F08068911DDF93B1
:10187000CF931F930F93FF92EF92192F987F969516
:10188000E92F96959695E90FFF27EE53FF4F99277D
:101890003327EE24FF24A701E7010590089407945D
:1018A00028F4360FE71EF81E491F511D660F771FDB
:1018B000881F991F0694A1F70590079428F4E70E56
:1018C000F81E491F561FC11D770F881F991F661FDD
:1018D0000694A1F70590079428F4F80E491F561FA7
:1018E000C71FD11D880F991F661F771F0694A1F788
:1018F0000590079420F4490F561FC71FD81F990F52
:10190000661F771F881F0694A9F78491109517709A
:1019100041F0D695C79557954795F794E7941A9552
:10192000C1F7E8E6F0E0689415901591359165915E
:10193000959105907FE27395E118F10A430B560BE0
:10194000C90BD009C0F7E10CF11E431F561FC91F78
:10195000D01D7EF4703311F48A95E6CFE8940150DF
:1019600030F0080F0AF40027021708F4202F2395FF
:10197000022F7A3328F079E37D932A95E9F710C096
:101980007D932A9589F606949795679537951795CF
:101990001794E118F10A430B560BC90BD00998F0C4
:1019A00023957E9173957A3308F070E37C9320132E
:1019B000B8F77E9170617D9330F0839571E37D93EC
:1019C00070E32A95E1F71124EF90FF900F911F919A
:1019D000CF91DF91992787FD909508952F923F929F
:1019E0004F925F926F927F928F929F92AF92BF922F
:1019F000CF92DF92EF92FF920F931F93CF93DF93DB
:101A0000CDB7DEB7CA1BDB0B0FB6F894DEBF0FBE37
:101A1000CDBF09942A88398848885F846E847D8484
:101A20008C849B84AA84B984C884DF80EE80FD8086
:101A30000C811B81AA81B981CE0FD11D0FB6F894FC
:101A4000DEBF0FBECDBFED010895A1E21A2EAA1B85
:101A5000BB1BFD010DC0AA1FBB1FEE1FFF1FA2175E
:101A6000B307E407F50720F0A21BB30BE40BF50B5B
:101A7000661F771F881F991F1A9469F760957095E4
:101A8000809590959B01AC01BD01CF010895505800
:101A9000BB27AA270E945F0D0C94D20E0E94C40E91
:101AA00038F00E94CB0E20F039F49F3F19F426F451
:101AB0000C94C10E0EF4E095E7FB0C94BB0EE92FDD
:101AC0000E94E30E58F3BA1762077307840795075D
:101AD00020F079F4A6F50C94050F0EF4E0950B2E8A
:101AE000BA2FA02D0B01B90190010C01CA01A00170
:101AF0001124FF27591B99F0593F50F4503E68F1CB
:101B00001A16F040A22F232F342F4427585FF3CF0B
:101B1000469537952795A795F0405395C9F77EF4DC
:101B20001F16BA0B620B730B840BBAF09150A1F025
:101B3000FF0FBB1F661F771F881FC2F70EC0BA0FAB
:101B4000621F731F841F48F4879577956795B79533
:101B5000F7959E3F08F0B0CF9395880F08F099272E
:101B6000EE0F9795879508950E94970E08F481E0EF
:101B700008950E94CD0D0C94D20E0E94CB0E58F009
:101B80000E94C40E40F029F45F3F29F00C94BB0E74
:101B900051110C94060F0C94C10E0E94E30E68F3D1
:101BA0009923B1F3552391F3951B550BBB27AA2716
:101BB00062177307840738F09F5F5F4F220F331F50
:101BC000441FAA1FA9F335D00E2E3AF0E0E832D018
:101BD00091505040E695001CCAF72BD0FE2F29D01B
:101BE000660F771F881FBB1F261737074807AB07ED
:101BF000B0E809F0BB0B802DBF01FF2793585F4F62
:101C00003AF09E3F510578F00C94BB0E0C94060FF1
:101C10005F3FE4F3983ED4F3869577956795B79543
:101C2000F7959F5FC9F7880F911D9695879597F94E
:101C30000895E1E0660F771F881FBB1F62177307C7
:101C40008407BA0720F0621B730B840BBA0BEE1FDC
:101C500088F7E09508950E94EB0E88F09F5798F062
:101C6000B92F9927B751B0F0E1F0660F771F881FA1
:101C7000991F1AF0BA95C9F714C0B13091F00E94BB
:101C8000050FB1E008950C94050F672F782F882772
:101C9000B85F39F0B93FCCF3869577956795B395E2
:101CA000D9F73EF490958095709561957F4F8F4F51
:101CB0009F4F0895E89409C097FB3EF49095809556
:101CC000709561957F4F8F4F9F4F9923A9F0F92F02
:101CD00096E9BB279395F695879577956795B79580
:101CE000F111F8CFFAF4BB0F11F460FF1BC06F5F66
:101CF0007F4F8F4F9F4F16C0882311F096E911C078
:101D0000772321F09EE8872F762F05C0662371F098
:101D100096E8862F70E060E02AF09A95660F771FAC
:101D2000881FDAF7880F9695879597F90895990F88
:101D30000008550FAA0BE0E8FEEF16161706E80795
:101D4000F907C0F012161306E407F50798F0621BB6
:101D5000730B840B950B39F40A2661F0232B242B8B
:101D6000252B21F408950A2609F4A140A6958FEFAA
:101D7000811D811D089597F99F6780E870E060E0FC
:101D800008959FEF80EC089500240A941616170614
:101D900018060906089500240A941216130614065C
:101DA00005060895092E0394000C11F4882352F0BF
:101DB000BB0F40F4BF2B11F460FF04C06F5F7F4F77
:101DC0008F4F9F4F089557FD9058440F551F59F05E
:101DD0005F3F71F04795880F97FB991F61F09F3F18
:101DE00079F087950895121613061406551FF2CF41
:101DF0004695F1DF08C0161617061806991FF1CF91
:101E000086957105610508940895E894BB276627B7
:101E10007727CB0197F908950E94970E08F48FEF6A
:101E200008950E94240F0C94D20E0E94C40E38F024
:101E30000E94CB0E20F0952311F00C94BB0E0C9455
:101E4000C10E11240C94060F0E94E30E70F3959FAF
:101E5000C1F3950F50E0551F629FF001729FBB27A1
:101E6000F00DB11D639FAA27F00DB11DAA1F649F3D
:101E70006627B00DA11D661F829F2227B00DA11DF0
:101E8000621F739FB00DA11D621F839FA00D611D76
:101E9000221F749F3327A00D611D231F849F600D97
:101EA000211D822F762F6A2F11249F5750409AF0C0
:101EB000F1F088234AF0EE0FFF1FBB1F661F771F4C
:101EC000881F91505040A9F79E3F510580F00C9417
:101ED000BB0E0C94060F5F3FE4F3983ED4F3869557
:101EE00077956795B795F795E7959F5FC1F7FE2BB7
:101EF000880F911D9695879597F9089519F416F412
:101F00000C94C10E0C94C40F0E94EB0EB8F39923ED
:101F1000C9F3B6F39F57550B87FF0E94D20F0024D9
:101F2000A0E640EA900180585695979528F4805C89
:101F3000660F771F881F20F026173707480730F4F1
:101F4000621B730B840B202931294A2BA695179409
:101F50000794202531254A2758F7660F771F881FD9
:101F600020F026173707480730F4620B730B840BF9
:101F7000200D311D411DA09581F7B901842F915885
:101F8000880F9695879508959F3F31F0915020F4E2
:101F9000879577956795B795880F911D9695879545
:101FA00097F9089591505040660F771F881FD2F718
:061FB0000895F894FFCF34
:101FB600010F270F27486F7665726372616674207A
:101FC600696E69740D0A00555320696E69740D0AAD
:101FD60000495220696E69740D0A00536572766F66
:101FE60020696E69740D0A0046616E20696E697417
:101FF6000D0A0049324320696E69740D0A00494D85
:102006005520696E69740D0A0052454144590D0AFE
:1020160000486F766572637261667420496E6974F2
:1020260069616C697A6564210D0A0046726F6E7487
:102036003A200020202020205269676874203A2028
:02204600000098
:00000001FF
