:100000000C9434000C947B010C94B4010C945100BA
:100010000C9451000C9451000C9451000C9451001C
:100020000C9451000C9451000C9451000C9451000C
:100030000C9451000C9451000C9451000C945100FC
:100040000C9431010C9451000C9451000C9451000B
:100050000C9451000C9451000C9451000C945100DC
:100060000C9451000C94510011241FBECFEFD8E026
:10007000DEBFCDBF11E0A0E0B1E0E8E4F8E102C0EE
:1000800005900D92A630B107D9F721E0A6E0B1E0C6
:1000900001C01D92A335B207E1F70E94ED010C9457
:1000A000220C0C9400003FB7F89480914F0190917E
:1000B0005001A0915101B091520126B5A89B05C0F5
:1000C0002F3F19F00196A11DB11D3FBFBA2FA92FD7
:1000D000982F8827BC01CD01620F711D811D911DD4
:1000E00042E0660F771F881F991F4A95D1F7089540
:1000F0002FB7F89460914B0170914C0180914D01A4
:1001000090914E012FBF0895CF92DF92EF92FF9210
:100110006B017C0120E030E044E353E40E94550B86
:1001200018169CF120E030E044E353ECC701B6011F
:100130000E94FD0987FF06C0C12CD12C94E3E92E53
:1001400093ECF92E25E535E545ED50E4C701B60100
:100150000E945A0B20E030E84BEB54E40E949109D6
:100160009B01AC010E94910920E030E040E05FE398
:100170000E9491090E94740A70938900609388001C
:10018000FF90EF90DF90CF900895C12CD12C84E3A5
:10019000E82E83E4F82ED6CF8093BB0084E88093CA
:1001A000BC008091BC0087FFFCCF089584EA809357
:1001B000BC008091BC0087FFFCCF0895CF93DF93F4
:1001C000EC010E94D60080ED0E94CC008BE30E94DF
:1001D000CC000E94D60081ED0E94CC0090E080E02F
:1001E00024E834EC8D30D1F03093BC004091BC0059
:1001F00047FFFCCF4091BB00FE01E80FF91F408391
:1002000001968E30910571F784E98093BC0085E3F7
:100210008A95F1F70000DF91CF9108952093BC00FB
:100220004091BC0047FFFCCF4091BB004D87E8CF19
:10023000CF93DF93D82FC62F0E94D60080ED0E9467
:10024000CC008D2F0E94CC008C2F0E94CC0084E922
:100250008093BC0085E38A95F1F70000DF91CF9190
:1002600008951F920F920FB60F9211242F933F9370
:100270008F939F93AF93BF9380914B0190914C01CB
:10028000A0914D01B0914E0130914A0123E0230F1E
:100290002D3758F50196A11DB11D20934A01809379
:1002A0004B0190934C01A0934D01B0934E0180916E
:1002B0004F0190915001A0915101B09152010196CE
:1002C000A11DB11D80934F0190935001A093510146
:1002D000B0935201BF91AF919F918F913F912F9118
:1002E0000F900FBE0F901F90189526E8230F0296CF
:1002F000A11DB11DD2CF1F920F920FB60F921124E4
:100300002F933F934F935F936F937F938F939F931D
:10031000AF93BF93EF93FF934A9B1BC00E94530080
:10032000609346017093470180934801909349017F
:10033000FF91EF91BF91AF919F918F917F916F91BD
:100340005F914F913F912F910F900FBE0F901F9093
:1003500018950E945300609342017093430180936B
:10036000440190934501E4CF1F920F920FB60F9274
:1003700011242F933F934F935F936F937F938F93AA
:100380009F93AF93BF93EF93FF934B9B1BC00E9430
:10039000530060933E0170933F018093400190931E
:1003A0004101FF91EF91BF91AF919F918F917F910B
:1003B0006F915F914F913F912F910F900FBE0F90D2
:1003C0001F9018950E94530060933A0170933B016F
:1003D00080933C0190933D01E4CFCF93DF93CDB761
:1003E000DEB766970FB6F894DEBF0FBECDBF789428
:1003F00084B5826084BD84B5816084BD85B582602A
:1004000085BD85B5816085BD80916E0081608093DA
:100410006E00109281008091810082608093810043
:100420008091810081608093810080918000816053
:10043000809380008091B10084608093B1008091AE
:10044000B00081608093B00080917A0084608093D6
:100450007A0080917A00826080937A0080917A009D
:10046000816080937A0080917A00806880937A001E
:100470001092C1001092C50087E68093C40088E105
:100480008093C10086E08093C20084B1886284B901
:1004900085B1877D85B98AB1837F8AB98BB1837F26
:1004A0008BB985E08093690083E08DBB10923A019F
:1004B00010923B0110923C0110923D0110923E01BE
:1004C00010923F011092400110924101109242019E
:1004D000109243011092440110924501109246017E
:1004E00010924701109248011092490180E48093D4
:1004F0007C0087E880937A0080917C00807F826016
:1005000080937C00219A82E8809380008AE1809326
:10051000810080E49CE9909387008093860088EBBB
:100520009BE090938900809388008AB180668AB9A5
:100530005D9884B5836084BD84B5806A84BD85B5CB
:10054000826085BD17BC18BC1092B90098E49093E6
:10055000B80084E08093BC001092B9009093B8007A
:100560008093BC0060E08BE60E9418012FEF31EE13
:1005700044E0215030404040E1F700C0000067E017
:1005800089E10E94180163E08AE10E94180168E095
:100590008BE10E94180168E08CE10E941801109222
:1005A0001A0110921B0110921C0110921D01109251
:1005B0000A0110920B0110920C0110920D01109281
:1005C0000601109207011092080110920901109281
:1005D000160110921701109218011092190181E072
:1005E000809300015FEF81EE94E051508040904095
:1005F000E1F700C0000008EC10E0C12CD12C76011E
:10060000CE0101960E94DE006D857E8576276727E4
:100610007627072E000C880B990B0E94A50A20E074
:1006200030E043E852E40E94020A9B01AC01C7019A
:10063000B6010E9491096B017C01AFE1BEE4119704
:10064000F1F700C0000001501109D1F620E030E0C0
:1006500048E453E40E94020A60930A0170930B017C
:1006600080930C0190930D0160E070E0CB010E943B
:1006700084008FEF88BD17BC789410E000E022243E
:100680002A94332433940E945300209100012223A2
:1006900059F160931601709317018093180190939C
:1006A000190110920001C0901A01D0901B01E09036
:1006B0001C01F0901D0120E030E044E353E4C70149
:1006C000B6010E94550B18160CF0AFC120E030E0C7
:1006D00044EB53E4C701B6010E9490096B017C0111
:1006E000EACF04E010E0CFCFC0901601D090170100
:1006F000E0901801F09019019B01AC012C193D0903
:100700004E095F092F87388B498B5A8B203137422E
:100710004105510540F260931601709317018093D3
:10072000180190931901CE0101960E94DE006D859B
:100730007E85362F272F3C8B2B8B69817A817627FC
:1007400067277627072E000C880B990B0E94A50AB5
:1007500020E030E040E059E30E945A0B23EC35EFF3
:100760004CE151E40E945A0B2B013C016B817C81CE
:10077000762767277627072E000C880B990B0E9497
:10078000A50A20E030E040E059E30E945A0B23EC38
:1007900035EF4CE151E40E945A0B4B015C016D8135
:1007A0007E81762767277627072E000C880B990B0A
:1007B0000E94A50A20E030E040E059E30E945A0B75
:1007C00023EC35EF4CE151E40E945A0B6B017C01A4
:1007D000A3019201C301B2010E945A0B2B013C01FB
:1007E000A5019401C501B4010E945A0B9B01AC0103
:1007F000C301B2010E9491094B015C01A70196015E
:10080000C701B6010E945A0B9B01AC01C501B4019E
:100810000E9491090E94CD0B2B013C0140921201D4
:100820005092130160921401709215014B895C89FA
:10083000BA01550F880B990B0E94A50A20E030E001
:1008400043E852E40E94020A60930E0170930F0184
:10085000809310019093110160910E0170910F012E
:10086000809110019091110120910A0130910B01AA
:1008700040910C0150910D010E9490096B017C0187
:100880008090060190900701A0900801B0900901A6
:10089000A50194010E9490092DEC3CEC4CEC5EE328
:1008A0000E945A0BA50194010E9491094B015C0121
:1008B0008092060190920701A0920801B09209016E
:1008C00080911A0190911B01A0911C01B0911D0112
:1008D0008B8B9C8BAD8BBE8B6F85788989899A8930
:1008E0000E94A30A20E034E244E759E40E94020A8D
:1008F000A50194010E945A0B2B893C894D895E8980
:100900000E94910960931A0170931B0180931C014E
:1009100090931D0160911A0170911B0180911C013F
:1009200090911D0120E030E044E353E40E94550B18
:100930001816B4F460911A0170911B0180911C018A
:1009400090911D0120E030E044EB53E40E949009B7
:1009500060931A0170931B0180931C0190931D01F9
:1009600060911A0170911B0180911C0190911D01F1
:1009700020E030E044E353EC0E94FD0987FF16C0FD
:1009800060911A0170911B0180911C0190911D01D1
:1009900020E030E044EB53E40E94910960931A0197
:1009A00070931B0180931C0190931D0123EC35EF84
:1009B0004CE151E4C301B2010E94020A20E030E0A0
:1009C00040E85FE30E9490099F772AE939E949E10D
:1009D0005EE30E94FD0987FF66CE20E030E040E83C
:1009E0005FE3C701B6019F770E94FD0987FF5BCED9
:1009F00080900A0190900B01A0900C01B0900D0125
:100A00002FE632E143E85AE3C701B6010E945A0BD0
:100A1000A50194010E94910960930A0170930B0152
:100A200080930C0190930D013ECE20E030E044E332
:100A300053ECC701B6010E94FD0987FF0BC020E0FF
:100A400030E044EB53E4C701B6010E9491096B0109
:100A50007C01EBCF80910501882309F4C9C0809106
:100A60007C00807F826080937C0080917A0080642B
:100A700080937A0080917A0086FDFCCF8091780087
:100A80009091790090931F0180931E012D9A95E318
:100A90009A95F1F700002D98AFE7B2E3E2E0A1509C
:100AA000B040E040E1F700C0000040913A015091B1
:100AB0003B0160913C0170913D0180913E0190911C
:100AC0003F01A0914001B091410184179507A6070D
:100AD000B707F8F460913A0170913B0180913C01B5
:100AE00090913D0180903E0190903F01A090400187
:100AF000B0904101681979098A099B092AE330E01D
:100B000040E050E00E946E09213981E0380708F486
:100B1000ACC0AFE0B7E2B0930401A0930301109220
:100B20003A0110923B0110923C0110923D0110924B
:100B30003E0110923F0110924001109241012B9A08
:100B4000B5E3BA95F1F700002B98EFE722E332E026
:100B5000E15020403040E1F700C0000040914201E8
:100B6000509143016091440170914501809146018B
:100B700090914701A0914801B091490184179507D0
:100B8000A607B707F8F46091420170914301809184
:100B90004401909145018090460190904701A090BA
:100BA0004801B0904901681979098A099B092AE32B
:100BB00030E040E050E00E946E09213981E03807C2
:100BC00008F458C0AFE0B7E2B0930201A09301016E
:100BD000109242011092430110924401109245017B
:100BE000109246011092470110924801109249015B
:100BF0002091010130910201388B2F87B90190E0DB
:100C000080E00E94A30A6B8B7C8B8D8B9E8B0230C5
:100C1000110509F405C398F50130110509F4CBC19C
:100C200000910301109104013092050128BC27BCFA
:100C3000A7019601609136017091370180913801CA
:100C4000909139010E9490094B015C0120E030E055
:100C500044E353E40E94550B181604F520E030E0FD
:100C600044EB53E4C501B401EDCF3093040120936C
:100C7000030155CF3093020120930101A9CF033026
:100C8000110509F461C20430110551F660E070E00D
:100C9000CB010E94840017BC18BCF5CC20E030E0EA
:100CA00044E353ECC501B4010E94FD0987FF0BC06A
:100CB00020E030E044EB53E4C501B4010E94910907
:100CC0004B015C01EBCF20E030E040E450ECC5018B
:100CD000B4010E945A0B4B015C0120E030E044E378
:100CE00052EC0E94FD0987FDABC020E030E044E3F8
:100CF00052E4C501B4010E94550B181634F4812C3E
:100D0000912C94E3A92E92E4B92E0E9478002B0135
:100D10003C018091320190913301A0913401B09156
:100D20003501A3019201281B390B4A0B5B0BDA0139
:100D3000C9014597A105B10590F020E030E040EAF7
:100D400051E4C501B4010E9491090E9484004092BF
:100D500032015092330160923401709235018091DA
:100D60001E0190911F018139914008F0BACCB80161
:100D700090E080E00E94A30A4B015C010E94780091
:100D80002B013C0120E030E040E751E4C501B40113
:100D90000E94FD0987FF6AC020E03CE34CE156E475
:100DA000C501B4010E94FD09882309F45FC0809148
:100DB0002E0190912F01A0913001B0913101009747
:100DC000A105B10509F043C040922E0150922F01B8
:100DD000609230017092310180912D01882309F4D5
:100DE000C3C017BC8F8598890597803F914008F054
:100DF0007AC02B893C894D895E89C501B4010E9466
:100E0000FD0987FF70C060E070E086E193E40E9416
:100E1000840020E030E044EB52E4C701B6010E94B8
:100E200090096B017C0120E030E044E353E40E9430
:100E3000550B181624F520E030E044EB53E4EDCFD9
:100E4000812C912C84E3A82E82ECB82E5ECF481A18
:100E5000590A6A0A7B0A41ED441647E054066104C8
:100E6000710408F4B9CF30922D01B6CF10922E0143
:100E700010922F011092300110923101ADCF20E07D
:100E800030E044E353ECC701B6010E94FD0987FF3F
:100E90000BC020E030E044EB53E4C701B6010E94F0
:100EA00091096B017C01EBCFC0922901D0922A01FC
:100EB000E0922B01F0922C0103E010E00E947800F8
:100EC0006093250170932601809327019093280158
:100ED00010922D0110922E0110922F0110923001CC
:100EE00010923101D0CB60E070E086E193EC0E947B
:100EF000840020E030E044EB52E4C701B6010E94D8
:100F000091096B017C0120E030E044E353E40E944E
:100F1000550B18164CF420E030E044EB53E4C701C5
:100F2000B6010E949009EDCF20E030E044E353EC9D
:100F3000C701B6010E94FD0987FF0BC020E030E029
:100F400044EB53E4C701B6010E9491096B017C0197
:100F5000EBCFC0922901D0922A01E0922B01F092AE
:100F60002C0102E010E0AACF05501109003F11400A
:100F700018F010E000E087CB20E030E040E252E4DF
:100F8000C501B4010E94FD0987FFF3CF98E797BD23
:100F9000809124018F5F883018F480932401E9CF79
:100FA0001092240160E070E0CB010E94840017BC25
:100FB00001E010E068CB3092050180912001909112
:100FC0002101A0912201B0912301892B8A2B8B2B27
:100FD00051F40E9478006093200170932101809366
:100FE00022019093230160E070E0CB010E94840015
:100FF00017BC18BC0E9478008090200190902101BD
:10100000A0902201B0902301681979098A099B09EF
:10101000613971408105910508F435CB10922001AA
:101020001092210110922201109223018F8598893C
:101030000597803F914060F420E030E04CE052E4BE
:101040006B897C898D899E890E94550B87FF45C0DD
:1010500020E030E044EB52E4C701B6010E94910960
:101060006B017C0120E030E044E353E40E94550B27
:1010700018164CF420E030E044EB53E4C701B6010D
:101080000E949009EDCF20E030E044E353ECC7012B
:10109000B6010E94FD0987FF0BC020E030E044EB61
:1010A00053E4C701B6010E9491096B017C01EBCFAB
:1010B000C0922901D0922A01E0922B01F0922C01DA
:1010C00002E010E00E9478006093250170932601F1
:1010D0008093270190932801D6CA20E030E044EBAA
:1010E00052E4C701B6010E9490096B017C0120E027
:1010F00030E044E353E40E94550B18162CF420E032
:1011000030E044EB53E4EDCF20E030E044E353EC37
:10111000C701B6010E94FD0987FF0BC020E030E047
:1011200044EB53E4C701B6010E9491096B017C01B5
:10113000EBCFC0922901D0922A01E0922B01F092CC
:101140002C0103E010E0BECF1092050128BCE8ECB2
:10115000E7BD60E070E08CE093E40E948400A701AA
:1011600096016091290170912A0180912B01909143
:101170002C010E9490094B015C0120E030E044E327
:1011800053E40E94550B18163CF420E030E044EB89
:1011900053E4C501B401EDCF20E030E044E353EC6B
:1011A000C501B4010E94FD0987FF0BC020E030E0BB
:1011B00044EB53E4C501B4010E9491094B015C0169
:1011C000EBCFC501B4019F7720E030E040E050E470
:1011D0000E94FD09181684F060E070E0CB010E94C7
:1011E0008400C0923601D0923701E0923801F0922B
:1011F000390130920501BDCE0E9478008090250112
:1012000090902601A0902701B090280168197909D3
:101210008A099B09613D774081059105E8F633CA4B
:101220001092050128BC38EC37BD60E070E08CE01E
:1012300093EC0E948400A7019601609129017091AE
:101240002A0180912B0190912C010E9490094B0161
:101250005C0120E030E044E353E40E94550B181693
:101260003CF420E030E044EB53E4C501B401EDCFA1
:1012700020E030E044E353ECC501B4010E94FD09D5
:1012800087FF0BC020E030E044EB53E4C501B4011C
:101290000E9491094B015C01EBCFC501B4019F771E
:1012A00020E030E040E050E40E94FD0918160CF008
:1012B00093CF0E9478008090250190902601A09005
:1012C0002701B0902801681979098A099B09613DB5
:1012D00077408105910508F07FCFD5C9A1E21A2E8C
:1012E000AA1BBB1BFD010DC0AA1FBB1FEE1FFF1FCA
:1012F000A217B307E407F50720F0A21BB30BE40B1A
:10130000F50B661F771F881F991F1A9469F7609560
:101310007095809590959B01AC01BD01CF0108951A
:101320005058BB27AA270E94A8090C941B0B0E94A7
:101330000D0B38F00E94140B20F039F49F3F19F484
:1013400026F40C940A0B0EF4E095E7FB0C94040BC6
:10135000E92F0E942C0B58F3BA1762077307840712
:10136000950720F079F4A6F50C944E0B0EF4E09559
:101370000B2EBA2FA02D0B01B90190010C01CA014F
:10138000A0011124FF27591B99F0593F50F4503EFA
:1013900068F11A16F040A22F232F342F4427585FEC
:1013A000F3CF469537952795A795F0405395C9F704
:1013B0007EF41F16BA0B620B730B840BBAF09150BC
:1013C000A1F0FF0FBB1F661F771F881FC2F70EC05B
:1013D000BA0F621F731F841F48F48795779567952E
:1013E000B795F7959E3F08F0B0CF9395880F08F01A
:1013F0009927EE0F9795879508950E94E00A08F4C3
:1014000081E008950E94160A0C941B0B0E94140B95
:1014100058F00E940D0B40F029F45F3F29F00C9426
:10142000040B51110C944F0B0C940A0B0E942C0BC3
:1014300068F39923B1F3552391F3951B550BBB2703
:10144000AA2762177307840738F09F5F5F4F220F48
:10145000331F441FAA1FA9F335D00E2E3AF0E0E83F
:1014600032D091505040E695001CCAF72BD0FE2F89
:1014700029D0660F771F881FBB1F2617370748071D
:10148000AB07B0E809F0BB0B802DBF01FF279358D5
:101490005F4F3AF09E3F510578F00C94040B0C948A
:1014A0004F0B5F3FE4F3983ED4F3869577956795AD
:1014B000B795F7959F5FC9F7880F911D969587950A
:1014C00097F90895E1E0660F771F881FBB1F621729
:1014D00073078407BA0720F0621B730B840BBA0BE7
:1014E000EE1F88F7E09508950E94340B88F09F570F
:1014F00098F0B92F9927B751B0F0E1F0660F771F38
:10150000881F991F1AF0BA95C9F714C0B13091F02D
:101510000E944E0BB1E008950C944E0B672F782F6C
:101520008827B85F39F0B93FCCF3869577956795F2
:10153000B395D9F73EF490958095709561957F4F5E
:101540008F4F9F4F0895E89409C097FB3EF4909504
:101550008095709561957F4F8F4F9F4F9923A9F08C
:10156000F92F96E9BB279395F6958795779567951B
:10157000B795F111F8CFFAF4BB0F11F460FF1BC05F
:101580006F5F7F4F8F4F9F4F16C0882311F096E9F2
:1015900011C0772321F09EE8872F762F05C06623A0
:1015A00071F096E8862F70E060E02AF09A95660F59
:1015B000771F881FDAF7880F9695879597F9089512
:1015C000990F0008550FAA0BE0E8FEEF1616170654
:1015D000E807F907C0F012161306E407F50798F0BC
:1015E000621B730B840B950B39F40A2661F0232BD5
:1015F000242B252B21F408950A2609F4A140A69551
:101600008FEF811D811D089597F99F6780E870E035
:1016100060E008959FEF80EC089500240A94161668
:10162000170618060906089500240A9412161306D0
:10163000140605060895092E0394000C11F488235E
:1016400052F0BB0F40F4BF2B11F460FF04C06F5F7A
:101650007F4F8F4F9F4F089557FD9058440F551F50
:1016600059F05F3F71F04795880F97FB991F61F024
:101670009F3F79F087950895121613061406551F9B
:10168000F2CF4695F1DF08C0161617061806991F07
:10169000F1CF86957105610508940895E894BB27FC
:1016A00066277727CB0197F908950E94E00A08F48E
:1016B0008FEF08950E946D0B0C941B0B0E940D0B75
:1016C00038F00E94140B20F0952311F00C94040BB9
:1016D0000C940A0B11240C944F0B0E942C0B70F3EA
:1016E000959FC1F3950F50E0551F629FF001729FC7
:1016F000BB27F00DB11D639FAA27F00DB11DAA1FD6
:10170000649F6627B00DA11D661F829F2227B00D22
:10171000A11D621F739FB00DA11D621F839FA00DAD
:10172000611D221F749F3327A00D611D231F849FFD
:10173000600D211D822F762F6A2F11249F57504054
:101740009AF0F1F088234AF0EE0FFF1FBB1F661FCF
:10175000771F881F91505040A9F79E3F510580F098
:101760000C94040B0C944F0B5F3FE4F3983ED4F3BE
:10177000869577956795B795F795E7959F5FC1F73C
:10178000FE2B880F911D9695879597F9089519F46A
:1017900016F40C940A0B0C940D0C0E94340BB8F345
:1017A0009923C9F3B6F39F57550B87FF0E941B0C73
:1017B0000024A0E640EA900180585695979528F4B9
:1017C000805C660F771F881F20F0261737074807B1
:1017D00030F4621B730B840B202931294A2BA69508
:1017E00017940794202531254A2758F7660F771F4D
:1017F000881F20F026173707480730F4620B730B59
:10180000840B200D311D411DA09581F7B901842F56
:101810009158880F9695879508959F3F31F0915084
:1018200020F4879577956795B795880F911D9695C4
:10183000879597F9089591505040660F771F881F3C
:08184000D2F70895F894FFCFE0
:06184800010F270F27012C
:00000001FF
